{
  "transactions": [
    {
      "hash": "0xe318355007ecd53ef07cfab6737fdaec5454c2a63783c7c9ee6a1e218cd4749f",
      "transactionType": "CALL",
      "contractName": null,
      "contractAddress": "0xb686455b40e7f7e5bacd954c70365ed5c88d2f3a",
      "function": "unlock(bytes32)",
      "arguments": [
        "0x412076657279207374726f6e67207365637265742070617373776f7264203a29"
      ],
      "transaction": {
        "from": "0xa86ea1be0a43ea977dd7489c7c91247b1a7bc50b",
        "to": "0xb686455b40e7f7e5bacd954c70365ed5c88d2f3a",
        "gas": "0x8242",
        "value": "0x0",
        "input": "0xec9b5b3a412076657279207374726f6e67207365637265742070617373776f7264203a29",
        "nonce": "0x2c",
        "chainId": "0xaa36a7",
        "accessList": null,
        "type": null
      },
      "additionalContracts": [],
      "isFixedGasLimit": false
    }
  ],
  "receipts": [
    {
      "status": "0x1",
      "cumulativeGasUsed": "0x670d6f",
      "logs": [],
      "logsBloom": "0x00000000000000000000000000000000000000000000000000000000000000000000000000000000000000000000000000000000000000000000000000000000000000000000000000000000000000000000000000000000000000000000000000000000000000000000000000000000000000000000000000000000000000000000000000000000000000000000000000000000000000000000000000000000000000000000000000000000000000000000000000000000000000000000000000000000000000000000000000000000000000000000000000000000000000000000000000000000000000000000000000000000000000000000000000000000",
      "type": "0x2",
      "transactionHash": "0xe318355007ecd53ef07cfab6737fdaec5454c2a63783c7c9ee6a1e218cd4749f",
      "transactionIndex": "0x35",
      "blockHash": "0x3300bbae676766409dc42b5ad7e4c255dfcc58ff8c76040ab37b0847b0e61e53",
      "blockNumber": "0x57d276",
      "gasUsed": "0x5e4f",
      "effectiveGasPrice": "0x2c08ec9f",
      "from": "0xa86ea1be0a43ea977dd7489c7c91247b1a7bc50b",
      "to": "0xb686455b40e7f7e5bacd954c70365ed5c88d2f3a",
      "contractAddress": null
    }
  ],
  "libraries": [],
  "pending": [],
  "returns": {},
  "timestamp": 1713819067,
  "chain": 11155111,
  "commit": "33fdbaf"
}